:100000000EC015C014C013C012C011C010C00FC064
:100010000EC00DC00CC00BC00AC009C008C011241E
:100020001FBECFE5D2E0DEBFCDBFDAD0BBC1E8CF87
:10003000FC0121E030E0C90102C0880F991F6A95D8
:10004000E2F7BC01808302C0220F331F4A95E2F71A
:10005000218387B3262B282B27BB98B38181892B3B
:1000600088BB089586B5806886BD86B5807F86BDCD
:100070008AB780648ABF80E090E00AB605FC06C0BB
:1000800001962AE12A95F1F700C0F7CF2AB720643C
:100090002ABF9C01220F331F220F331F820F931F91
:1000A000880F991F0895CF93DF93EC01DBDFCE011A
:1000B000D9DFDF91CF910895F6DF803B944014F4AF
:1000C00080E0089581E00895EF92FF921F93CF930F
:1000D000DF937C01C0E0D0E010E0C830D10564F4CB
:1000E000C701EADF90E00C2E02C0880F991F0A9426
:1000F000E2F7182B2196F1CF812FDF91CF911F913D
:10010000FF90EF90089563307105C1F03CF46130C9
:10011000710571F06230710571F0089566307105F6
:1001200099F06730710599F06530710591F409C057
:1001300080E285BB089588E085BB089580E185BB9A
:10014000089581E085BB089582E085BB089584E031
:1001500085BB0895CF93DF931F92CDB7DEB767E0DD
:1001600070E0CE010196CFDF0F90DF91CF9108951F
:10017000EF92FF920F931F93CF93DF93EC0193DFE6
:100180008C349D411CF480E090E023C0CE016ADFF6
:10019000883B9B402CF4CE0165DF80E090E019C0E5
:1001A000CE0192DF182FCE018FDFF82ECE018CDF2B
:1001B000082FCE0189DFE82ECE0154DFF0941F1105
:1001C00003C0E0940E1519F080E09FEF02C0812F6C
:1001D000902FDF91CF911F910F91FF90EF90089595
:1001E000CF93DF93CDB7DEB729970FB6F894DEBF74
:1001F0000FBECDBFCE010196ADDFCE01029642D03B
:1002000043E050E064E070E0CE01089611DFCE01DB
:100210000196AEDF963149F0953419F09C3081F4A7
:100220000AC0CE01029684D00BC060E070E0CE011F
:100230000296ABD005C061E070E0CE010296A5D079
:100240008FE19EE40197F1F700C00000E0CFFC01D0
:100250001182108213821282862F972F069718F42C
:100260006483758304C081E090E09583848327B321
:1002700081E090E002C0880F991F6A95E2F7822B17
:1002800087BB0895CF93DF9300D000D000D0CDB7C7
:10029000DEB761E070E0CE010196D9DF26960FB699
:1002A000F894DEBF0FBECDBFDF91CF91089548B364
:1002B00021E030E0FC01048002C0220F331F0A94C9
:1002C000E2F72095242328BB089548B321E030E0CD
:1002D000FC01048002C0220F331F0A94E2F7242B92
:1002E00028BB0895CF93DF93EC0188819981892BF6
:1002F00019F0CE01DCDF02C0CE01E7DF81E090E043
:1003000028813981232B11F080E090E09983888344
:10031000DF91CF91089521E0672B09F420E030E0D0
:10032000FC01408151812417350709F0DBDF089576
:10033000CF93DF93EC0160E070E0EDDF8FE19EE4AE
:100340000197F1F700C0000061E070E0CE01E3DF4B
:100350008FE19EE40197F1F700C0000060E070E0DB
:10036000CE01D9DF8FE19EE40197F1F700C00000D4
:1003700081E090E02A813B81232B11F080E090E026
:100380009B838A83DF91CF91089521E0672B09F445
:1003900020E030E0FC01428153812417350709F049
:0803A000C7DF0895F894FFCFB8
:00000001FF
