S01000004669726D776172652E73726563D7
S11300000EC01DC01CC01BC01AC019C018C017C028
S113001016C015C014C013C012C011C010C01124E2
S11300201FBECFE5D2E0DEBFCDBF20E0A0E6B0E04A
S113003001C01D92A436B207E1F7DBD0F1C0E0CFD6
S113004028B330E0A90102C0559547958A95E2F797
S1130050CA018170992708950F931F93CF93DF935B
S1130060C0E080E090E0ECDF892B21F4C83C20F074
S1130070D0E003C0D0E001C0D1E0DD2331F0CF5F98
S11300808AE18A95F1F700C0ECCFC05AC83208F073
S11300909DC0C0E080E090E0D3DF892B21F0C4361E
S11300A020F01D2F03C01D2F01C011E0112331F0DA
S11300B0CF5F8AE18A95F1F700C0ECCFCC53C83208
S11300C008F087C000E0003208F086C0D0E080E08D
S11300D090E0B6DF892B21F4DE3020F0C12F03C07D
S11300E0C12F01C0C1E0CC2331F0DF5F8AE18A95E2
S11300F0F1F700C0ECCFD850D63008F070C0D0E093
S113010080E090E09DDF892B21F0D83220F08C2F05
S113011003C08C2F01C081E0882331F0DF5F8AE1C6
S11301208A95F1F700C0ECCF88EF8D0F803208F08C
S113013059C0D53120F12FE130E0201B310981E095
S113014090E002C0880F991F2A95E2F7092E000C4F
S1130150AA0BBB0B4091600050916100609162005A
S113016070916300842B952BA62BB72B8093600092
S113017090936100A0936200B093630025C02FE1C7
S113018030E0201B310981E090E002C0880F991F04
S11301902A95E2F780959095092E000CAA0BBB0BCB
S11301A04091600050916100609162007091630021
S11301B084239523A623B723809360009093610042
S11301C0A0936200B09363000F5F7DCF80E090E066
S11301D00BC080E090E008C081E090E005C080E0C2
S11301E090E002C080E090E0DF91CF911F910F91E9
S11301F0089587B3846087BB2FDF892B69F088B3A8
S1130200846088BB2FEF80E792E0215080409040CB
S1130210E1F700C00000F0CF88B38B7F88BBECCF40
S1070220F894FFCF7C
S9030000FC
