S01000004669726D776172652E73726563D7
S11300000EC015C014C013C012C011C010C00FC060
S11300100EC00DC00CC00BC00AC009C008C011241A
S11300201FBECFE5D2E0DEBFCDBF38D060C1E8CF80
S113003087B3886187BB089520E030E0283031051C
S11300404CF567E070E0621B730B482F50E002C070
S1130050559547956A95E2F740FF04C098B39061BF
S113006098BB03C098B39F7E98BB98B3986098BB25
S1130070E7ECF0E03197F1F700C0000098B3977E09
S113008098BBE7ECF0E03197F1F700C000002F5F78
S11300903F4FD4CF88B38F7E88BB0895CF93DF932F
S11300A0CDB7DEB728970FB6F894DEBF0FBECDBF2D
S11300B087B3826087BBBCDF8CE49DE19A8389832C
S11300C088EB9BE09C838B8380EB94E09E838D8301
S11300D080E991E098878F8385B7816085BF10E0C0
S11300E078948AB780648ABF0AB606FC05C02AE100
S11300F02A95F1F700C0F8CF8AB780648ABF8AB71F
S113010080648ABF80E090E00AB606FC06C00196CF
S11301102AE12A95F1F700C0F7CF2AB720642ABF55
S11301209C01220F331F220F331F820F931F880F4E
S1130130991F29813A81821793070CF4CCC08AB79E
S113014080648ABF80E090E00AB606FC06C001968F
S11301502AE12A95F1F700C0F7CF2AB720642ABF15
S11301609C01220F331F220F331F820F931F880F0E
S1130170991F2B813C81821793077CF48AB7806492
S11301808ABF0AB606FC05C08AE18A95F1F700C069
S1130190F8CF8AB780648ABF9EC020E030E0283060
S11301A03105FCF48AB780648ABF0AB606FC05C030
S11301B09AE19A95F1F700C0F8CF8AB780648ABFB4
S11301C08AB780648ABF0AB606FC05C08AE18A95AC
S11301D0F1F700C0F8CF8AB780648ABF2F5F3F4F22
S11301E0DECF20E030E028303105FCF48AB78064AB
S11301F08ABF0AB606FC05C09AE19A95F1F700C0D9
S1130200F8CF8AB780648ABF8AB780648ABF0AB687
S113021006FC05C08AE18A95F1F700C0F8CF8AB7D9
S113022080648ABF2F5F3F4FDECF20E030E028306C
S11302303105FCF48AB780648ABF0AB606FC05C09F
S11302409AE19A95F1F700C0F8CF8AB780648ABF23
S11302508AB780648ABF0AB606FC05C08AE18A951B
S1130260F1F700C0F8CF8AB780648ABF2F5F3F4F91
S1130270DECF20E030E028303105FCF48AB780641A
S11302808ABF0AB606FC05C09AE19A95F1F700C048
S1130290F8CF8AB780648ABF8AB780648ABF0AB6F7
S11302A006FC05C08AE18A95F1F700C0F8CF8AB749
S11302B080648ABF2F5F3F4FDECF8AB780648ABFD6
S11302C00AB606FC05C09AE19A95F1F700C0F8CF8A
S11302D08AB780648ABF812FAFDE2FEF84E39CE06E
S11302E0215080409040E1F700C00000FACEF8941D
S10502F0FFCF3A
S9030000FC
