:100000000EC028C027C026C025C024C023C022C0DF
:1000100021C020C01FC01EC01DC01CC01BC0112499
:100020001FBECFE5D2E0DEBFCDBF10E0A0E6B0E05E
:10003000EAEDF2E002C005900D92A236B107D9F7C1
:1000400020E0A2E6B0E001C01D92A836B207E1F7B9
:100050002FD141C1D5CF109267001092660086B3B0
:1000600090E0809590952091600030E0822393236A
:10007000892B81F0809166009091670001969093A2
:100080006700809366008FE891E00197F1F700C068
:100090000000E5CF80916600909167008754910938
:1000A0004D9708F0D8C0109267001092660096B382
:1000B00080916000892341F08091660090916700F3
:1000C000C79720F040E003C040E001C041E0442376
:1000D00081F080916600909167000196909367008F
:1000E000809366008FE891E00197F1F700C000006F
:1000F000DECF8091660090916700849708F4ABC0D2
:100100001092650080916500803108F051C086B37F
:1001100090E0809590952091600030E082239323B9
:10012000892BA9F7109267001092660096B3809110
:100130006000892341F080916600909167004497A8
:1001400020F0842F03C0842F01C081E0882381F038
:10015000809166009091670001969093670080936C
:1001600066008FE891E00197F1F700C00000DECF54
:1001700080916600909167000B9720F081E080935A
:10018000640002C01092640090916200990F809107
:100190006400982B9093620080916500873021F471
:1001A00090936300109262008F5F80936500AACFE6
:1001B00080916300893909F04EC0809162008130DE
:1001C00019F488B3826088BB80916200823019F490
:1001D00088B3846088BB80916200833021F498B337
:1001E00088E0892788BB80916200843021F498B32D
:1001F00080E1892788BB109267001092660086B361
:1002000050916000852341F08091660090916700D5
:100210000A9720F0842F03C0842F01C081E0882337
:1002200081F080916600909167000196909367003D
:10023000809366008FE891E00197F1F700C000001D
:10024000DECF86B390E080959095252F30E0822315
:100250009323892BB1F7109267001092660080916A
:100260006600909167000196909367008093660006
:100270008FE891E00197F1F700C0000086B390E0AD
:10028000809590952091600030E082239323892B04
:1002900021F01092670010926600809166009091A4
:1002A0006700853F9140D8F288B3897F88BB089565
:1002B00080E886BD16BC8EE187BB18BA86B390E095
:1002C000809590952091600030E082239323892BC4
:0A02D000A9F3C1DEF3CFF894FFCFCD
:0202DA00010021
:00000001FF
