:100000000EC0E6C01CC01BC01AC019C018C017C063
:1000100016C015C014C013C012C011C010C01124E6
:100020001FBECFE5D2E0DEBFCDBF20E0A0E6B0E04E
:1000300001C01D92A236B207E1F7B9D004C1E0CFEA
:1000400088B3826088BB2FE38DE093E0215080402D
:100050009040E1F700C0000088B38D7F88BB089511
:100060008BB780648BBF80E090E02091600030917E
:100070006100232B61F401968C3D25E0920711F479
:1000800080E090E023E02A95F1F70000EECF109297
:100090006100109260002BB72F7B2BBF6AE070E0ED
:1000A000ABD0CB010895DCDFDBDF0895FCDF8634C5
:1000B000954014F480E0089581E008951F93CF9354
:1000C000DF93C0E0D0E010E0C830D10574F4EEDF7B
:1000D00090E027E030E02C1B3D0B02C0880F991FF9
:1000E0002A95E2F7182B2196EFCF812FDF91CF9140
:1000F0001F9108950F931F93CF93DF93D4DF803424
:100100009F411CF480E090E02BC0AADF8C3A9D4018
:1001100024F4A6DF80E090E023C0D0DFC82FCEDF3C
:10012000182FCCDFD82FCADF082F9ADF4C2F50E0D2
:10013000212F30E0209530954217530761F44D2F61
:1001400050E0202F30E0209530954217530719F4E6
:10015000843F91401CF480E090E002C08C2F9D2FE2
:10016000DF91CF911F910F9108958DB180628DB96C
:100170008DB182608DB908958FB920E030E02830CC
:100180003105A4F48DB182608DB98DB181608DB9D6
:1001900081E28A95F1F700008DB181608DB981E22D
:1001A0008A95F1F700002F5F3F4FE9CF089582E075
:1001B00087BB85B7816085BFD8DF78949BDFC92F67
:1001C000963109F43DDFF8948C2FD6DF7894F6CF82
:1001D0001F920F920FB60F9211248F939F9381E07D
:1001E00090E090936100809360009F918F910F90B9
:1001F0000FBE0F901F90189597FB072E16F40094D2
:1002000006D077FD08D00BD007FC05D03EF49095C2
:1002100081959F4F0895709561957F4F0895AA1B12
:10022000BB1B51E107C0AA1FBB1FA617B70710F0E1
:10023000A61BB70B881F991F5A95A9F78095909513
:0A024000BC01CD010895F894FFCF32
:00000001FF
