S01000004669726D776172652E73726563D7
S11300000EC00DC127C026C025C002C223C022C015
S113001021C020C01FC01EC01DC01CC01BC0112495
S11300201FBECFE5D2E0DEBFCDBF10E0A0E6B0E05A
S1130030ECEAF7E002C005900D92A236B107D9F7B9
S113004020E0A2E6B0E001C01D92AC38B207E1F7AF
S113005002D2AAC3D5CF90E020918800921758F419
S1130060E0918600F0918700E90FF11D20812817A7
S113007021F09F5FF1CF80E0089581E00895CF9350
S1130080DF93CDB7DEB728970FB6F894DEBF0FBE67
S1130090CDBF9A8389837C836B8301969E838D83F2
S11300A06F5F7F4F78876F8330E0343008F046C04D
S11300B020E0283008F040C0832F90E0FC01EE0FD0
S11300C0FF1FEE0FFF1FEE0FFF1FE20FF11DEA5996
S11300D0FF4F40814423B9F0880F991FE1E0F0E01D
S11300E0EC0FFD1FE80FF91F0190F081E02D81E076
S11300F090E0022E02C0880F991F0A94E2F79081C3
S1130100892B808317C0880F991FE1E0F0E0EC0F82
S1130110FD1FE80FF91F0190F081E02D81E090E0D0
S1130120022E02C0880F991F0A94E2F780959081ED
S1130130892380832F5FBDCF3F5FB7CF28960FB64B
S1130140F894DEBF0FBECDBFDF91CF910895AB0110
S1130150BC0183B7856083BF85B7816085BF8BB7DA
S113016080648BBF80E0803238F4E82FF0E0EA59F5
S1130170FF4F10828F5FF7CF443851056105710539
S113018020F484E0809389000895CB01BA017ED2E3
S11301902FE632E143E052E4E5D120E030E040E8EC
S11301A05FE37CD147D2609389000895CF93DF93B6
S11301B000D000D0CDB7DEB780916000882321F055
S11301C0813029F180E024C0BE016D5F7F4FCE01F4
S11301D0019655DF99818B8189278F3F29F48A8184
S11301E02C8128272F3F29F082E08093600080E053
S11301F00FC0EAE8F0E0908381832DDF882311F0BB
S113020082E001C081E08093600081E001C081E070
S11302100F900F900F900F90DF91CF9108951F9240
S11302200F920FB60F9211244F935F936F937F93A6
S11302308F939F93EF93FF9342B750E05695542FBB
S1130240442757954795052E000C660B770B86B30C
S1130250847090E095958795959587959091640025
S11302609230A1F128F4992351F09130C1F0C2C029
S1130270933009F45BC0943009F4A1C0BBC0811170
S11302800AC081E08093640088B7826088BF89B720
S1130290826089BFAFC082E080936000ABC08823D6
S11302A079F0463782E058076105710548F0433913
S11302B054406105710520F482E0809364009AC083
S11302C082E0809360001092640094C0811114C095
S11302D0423C9BE059076105710570F0473D95E18B
S11302E059076105710540F483E08093640010921E
S11302F06200109265007EC0811112C0473286E010
S113030058076105710560F04E365B406105710563
S113031038F484E08093640081E0809362006AC0D2
S113032082E0809360001092640064C081111FC059
S1130330483191E0590761057105C8F0493092E0F0
S113034059076105710598F4E091650081E08E0F0D
S113035080936500F0E0EA59FF4F108280916500B8
S1130360803208F447C084E08093640043C0811164
S11303701EC04A3E91E0590761057105C0F04E3830
S113038053406105710598F4E091650081E08E0F9A
S113039080936500F0E0EA59FF4F81E0808380910B
S11303A06500803238F184E08093640023C08111B9
S11303B021C082E080936000109264001BC08823F7
S11303C0A1F04A3781E058076105710570F04F3B91
S11303D052406105710548F480916200811102C0A8
S11303E0109260001092630003C082E0809360006A
S11303F01092640012BEFF91EF919F918F917F91B3
S11304006F915F914F910F900FBE0F901F901895B1
S11304101F920F920FB60F9211248F939F93809186
S113042063008F5F809363009091630080918900E3
S1130430981750F089B7826089BF82E0809360008A
S113044010926400109263009F918F910F900FBEE1
S11304500F901F90189582E087BB64E670E080E0FF
S113046090E075DE789488B3826088BB2FE38DE0DA
S113047093E0215080409040E1F700C0000088B331
S11304808D7F88BB2FE38DE093E021508040904026
S1130490E1F700C000008ADEE6CF5058BB27AA2748
S11304A00ED048C139D130F03ED120F031F49F3F15
S11304B011F41EF42EC10EF4E095E7FB24C1E92FDC
S11304C04AD180F3BA17620773078407950718F0B7
S11304D071F49EF562C10EF4E0950B2EBA2FA02D97
S11304E00B01B90190010C01CA01A0011124FF27DD
S11304F0591B99F0593F50F4503E68F11A16F040D8
S1130500A22F232F342F4427585FF3CF46953795D6
S11305102795A795F0405395C9F77EF41F16BA0B9B
S1130520620B730B840BBAF09150A1F0FF0FBB1F49
S1130530661F771F881FC2F70EC0BA0F621F731F92
S1130540841F48F4879577956795B795F7959E3FEF
S113055008F0B3CF9395880F08F09927EE0F97957D
S1130560879508950CD0E6C0DED040F0D5D030F0A9
S113057021F45F3F19F0C7C0511110C1CAC0EBD0BC
S113058098F39923C9F35523B1F3951B550BBB2756
S1130590AA2762177307840738F09F5F5F4F220F03
S11305A0331F441FAA1FA9F333D00E2E3AF0E0E8FC
S11305B030D091505040E695001CCAF729D0FE2F48
S11305C027D0660F771F881FBB1F261737074807DA
S11305D0AB07B0E809F0BB0B802DBF01FF27935890
S11305E05F4F2AF09E3F510568F08DC0D7C05F3F32
S11305F0ECF3983EDCF3869577956795B795F79578
S11306009F5FC9F7880F911D9695879597F908956F
S1130610E1E0660F771F881FBB1F6217730784070B
S1130620BA0720F0621B730B840BBA0BEE1F88F71A
S1130630E095089598D088F09F5790F0B92F9927A6
S1130640B751A0F0D1F0660F771F881F991F1AF0D9
S1130650BA95C9F712C0B13081F09FD0B1E00895C6
S11306609CC0672F782F8827B85F39F0B93FCCF347
S1130670869577956795B395D9F73EF490958095CF
S1130680709561957F4F8F4F9F4F0895E89409C0EF
S113069097FB3EF490958095709561957F4F8F4FB1
S11306A09F4F9923A9F0F92F96E9BB279395F695C7
S11306B0879577956795B795F111F8CFFAF4BB0F45
S11306C011F460FF1BC06F5F7F4F8F4F9F4F16C0A9
S11306D0882311F096E911C0772321F09EE8872F33
S11306E0762F05C0662371F096E8862F70E060E0EF
S11306F02AF09A95660F771F881FDAF7880F969568
S1130700879597F9089597F99F6780E870E060E00E
S113071008959FEF80EC089500240A941616170696
S113072018060906089500240A94121613061406DE
S113073005060895092E0394000C11F4882352F041
S1130740BB0F40F4BF2B11F460FF04C06F5F7F4FF9
S11307508F4F9F4F089557FD9058440F551F59F0E0
S11307605F3F71F04795880F97FB991F61F09F3F9A
S113077079F087950895121613061406551FF2CFC3
S11307804695F1DF08C0161617061806991FF1CF13
S113079086957105610508940895E894BB2766273A
S10F07A07727CB0197F90895F894FFCF58
S10507AC020045
S9030000FC
