:100000000EC015C014C013C012C011C010C00FC064
:100010000EC00DC00CC00BC00AC009C008C011241E
:100020001FBECFE5D2E0DEBFCDBF06D0EDC1E8CF29
:1000300087B3886187BB0895FBDF85B7816085BF83
:1000400040E050E061E070E087B3826087BB8AB730
:1000500080648ABF0AB606FC05C02AE12A95F1F73A
:1000600000C0F8CF8AB780648ABF8AB780648ABF2D
:1000700080E090E00AB606FC06C001963AE13A95A7
:10008000F1F700C0F7CF2AB720642ABF9C01220FE6
:10009000331F220F331F820F931F880F991F8C3439
:1000A0009D4114F4A0E039C18AB780648ABF80E022
:1000B00090E00AB606FC06C00196BAE1BA95F1F7DF
:1000C00000C0F7CF2AB720642ABF9C01220F331F3C
:1000D000220F331F820F931F880F991F883B9B406D
:1000E00084F48AB780648ABF0AB606FC05C03AE188
:1000F0003A95F1F700C0F8CF8AB780648ABFA0E0D4
:100100000CC1E0E0F0E020E0E830F105C4F58AB78A
:1001100080648ABF0AB606FC05C08AE18A95F1F7B9
:1001200000C0F8CF8AB780648ABF8AB780648ABF6C
:1001300080E090E00AB606FC06C00196AAE1AA9506
:10014000F1F700C0F7CF3AB730643ABFDC01AA0F2D
:10015000BB1FAA0FBB1F8A0F9B1F880F991F803BD5
:10016000944014F480E001C081E090E00E2E02C0C3
:10017000880F991F0A94E2F7282B3196C5CFE0E04B
:10018000F0E030E0E830F105C4F58AB780648ABF5A
:100190000AB606FC05C08AE18A95F1F700C0F8CFDF
:1001A0008AB780648ABF8AB780648ABF80E090E0A3
:1001B0000AB606FC06C00196AAE1AA95F1F700C0AE
:1001C000F7CFAAB7A064AABFDC01AA0FBB1FAA0F72
:1001D000BB1F8A0F9B1F880F991F803B944014F40C
:1001E00080E001C081E090E00E2E02C0880F991FD0
:1001F0000A94E2F7382B3196C5CFE0E0F0E0A0E0BA
:10020000E830F105C4F58AB780648ABF0AB606FCF7
:1002100005C08AE18A95F1F700C0F8CF8AB78064FB
:100220008ABF8AB780648ABF80E090E00AB606FC85
:1002300006C00196BAE1BA95F1F700C0F7CFBAB798
:10024000B064BABF8C01000F111F000F111F800F87
:10025000911F880F991F803B944014F480E001C0E7
:1002600081E090E00E2E02C0880F991F0A94E2F7F9
:10027000A82B3196C5CFE0E0F0E0C0E0E830F10512
:10028000C4F58AB780648ABF0AB606FC05C08AE155
:100290008A95F1F700C0F8CF8AB780648ABF8AB721
:1002A00080648ABF80E090E00AB606FC06C0019632
:1002B000BAE1BA95F1F700C0F7CFBAB7B064BABFE8
:1002C0008C01000F111F000F111F800F911F880F4D
:1002D000991F803B944014F480E001C081E090E0DD
:1002E0000E2E02C0880F991F0A94E2F7C82B319690
:1002F000C5CF8AB780648ABF0AB606FC05C08AE10A
:100300008A95F1F700C0F8CF8AB780648ABF30952C
:10031000231302C0C095AC13AFEFA63149F1A53449
:1003200021F0AC3009F093CE48C04115510569F079
:1003300028B381E090E0062E02C0880F991F0A942E
:10034000E2F78095822388BB0BC028B381E090E060
:10035000062E02C0880F991F0A94E2F7822B88BBF1
:1003600081E090E0452B11F080E090E0AC016FCE91
:10037000CA01009709F46BCE69F028B381E090E0E0
:10038000062E02C0880F991F0A94E2F780958223F7
:1003900088BB0BC028B381E090E0062E02C0880F16
:1003A000991F0A94E2F7822B88BB81E090E0452BED
:1003B00011F080E090E0AC014ACECA014130510515
:1003C00009F445CE892B69F028B381E090E0062E30
:1003D00002C0880F991F0A94E2F78095822388BB98
:1003E0000BC028B381E090E0062E02C0880F991F51
:1003F0000A94E2F7822B88BB81E090E0452B11F054
:0C04000080E090E0AC0123CEF894FFCF28
:00000001FF
