S01000004669726D776172652E73726563D7
S11300000EC015C014C013C012C011C010C00FC060
S11300100EC00DC00CC00BC00AC009C008C011241A
S11300201FBECFE5D2E0DEBFCDBF51D008C2E8CFBE
S113003088B3826088BB2FEF89E698E12150804025
S11300409040E1F700C0000088B38D7F88BB2FEF9C
S113005089E698E1215080409040E1F700C000001B
S1130060089587B3886187BB089520E030E0283085
S113007031054CF567E070E0621B730B482F50E0CC
S113008002C0559547956A95E2F740FF04C098B3BE
S1130090906198BB03C098B39F7E98BB98B3986057
S11300A098BBE7ECF0E03197F1F700C0000098B39B
S11300B0977E98BBE7ECF0E03197F1F700C00000C1
S11300C02F5F3F4FD4CF88B38F7E88BB0895CF93E3
S11300D0DF9300D000D000D0CDB7DEB787B3826005
S11300E087BBBFDF8CE49DE19A83898388EB9BE027
S11300F09C838B8380EB94E09E838D8385B78160A2
S113010085BF78948AB780648ABF0AB606FC05C0A6
S11301102AE12A95F1F700C0F8CF8AB780648ABF34
S11301208AB780648ABF80E090E00AB606FC06C005
S113013001962AE12A95F1F700C0F7CF2AB7206487
S11301402ABF9C01220F331F220F331F820F931FDC
S1130150880F991F29813A818217930714F410E0BC
S113016068C18AB780648ABF80E090E00AB606FC62
S113017006C001962AE12A95F1F700C0F7CF2AB705
S113018020642ABF9C01220F331F220F331F820FCA
S1130190931F880F991F2B813C818217930784F446
S11301A08AB780648ABF0AB606FC05C08AE18A95CC
S11301B0F1F700C0F8CF8AB780648ABF10E039C174
S11301C040E050E080E048305105E4F59AB790648F
S11301D09ABF0AB606FC05C09AE19A95F1F700C0E9
S11301E0F8CF9AB790649ABF9AB790649ABF20E008
S11301F030E00AB606FC07C02F5F3F4F9AE19A959C
S1130200F1F700C0F6CF9AB790649ABFB901660FB0
S1130210771F660F771F260F371F220F331F6D813D
S11302207E812617370714F420E001C021E030E076
S1130230042E02C0220F331F0A94E2F7822B4F5F71
S11302405F4FC1CF40E050E010E048305105E4F585
S11302509AB790649ABF0AB606FC05C02AE12A95AB
S1130260F1F700C0F8CF9AB790649ABF9AB7906438
S11302709ABF20E030E00AB606FC07C02F5F3F4F6C
S11302809AE19A95F1F700C0F6CF9AB790649ABFB5
S1130290B901660F771F660F771F260F371F220FCE
S11302A0331F6D817E812617370714F420E001C0C7
S11302B021E030E0042E02C0220F331F0A94E2F73B
S11302C0122B4F5F5F4FC1CF40E050E000E0483059
S11302D05105E4F59AB790649ABF0AB606FC05C0C6
S11302E02AE12A95F1F700C0F8CF9AB790649ABF33
S11302F09AB790649ABF20E030E00AB606FC07C0C3
S11303002F5F3F4F9AE19A95F1F700C0F6CF9AB765
S113031090649ABFB901660F771F660F771F260F87
S1130320371F220F331F6D817E812617370714F480
S113033020E001C021E030E0042E02C0220F331F70
S11303400A94E2F7022B4F5F5F4FC1CF40E050E0C9
S1130350F12C48305105E4F59AB790649ABF0AB677
S113036006FC05C02AE12A95F1F700C0F8CF9AB738
S113037090649ABF9AB790649ABF20E030E00AB6BE
S113038006FC07C02F5F3F4F9AE19A95F1F700C032
S1130390F6CF9AB790649ABFB901660F771F660FBC
S11303A0771F260F371F220F331F6D817E8126177B
S11303B0370714F420E001C021E030E0042E02C02D
S11303C0220F331F0A94E2F7F22A4F5F5F4FC1CF27
S11303D09AB790649ABF0AB606FC05C02AE12A952A
S11303E0F1F700C0F8CF9AB790649ABFE82E3DDECB
S11303F08FEC97E00197F1F700C00000812F35DE04
S11304008FEC97E00197F1F700C00000109581E0B0
S1130410E11280E02ADE8FE19EE40197F1F700C04B
S11304200000E11203C0F0940F1511F01FEF01C09A
S1130430102F163109F4FCDD812F17DE63CEF894FA
S1050440FFCFE8
S9030000FC
