S01000004669726D776172652E73726563D7
S11300000EC05CC01CC01BC01AC019C018C017C0E9
S113001016C015C014C013C012C011C010C01124E2
S11300201FBECFE5D2E0DEBFCDBF20E0A0E6B0E04A
S113003001C01D92A236B207E1F735D07AC0E0CFF5
S113004088B3826088BB2FE38DE093E02150804029
S11300509040E1F700C0000088B38D7F88BB08950D
S11300608BB780648BBF80E090E02091600030917A
S11300706100232B61F401968C3D25E0920711F475
S113008080E090E023E02A95F1F70000EECF109293
S11300906100109260002BB72F7B2BBF6AE070E0E9
S11300A021D0CB01089582E087BB85B7816085BFED
S11300B07894D6DF0B97ECF3C3DFFBCF1F920F923C
S11300C00FB60F9211248F939F9381E090E0909349
S11300D06100809360009F918F910F900FBE0F90ED
S11300E01F90189597FB072E16F4009406D077FD01
S11300F008D00BD007FC05D03EF4909581959F4F16
S11301000895709561957F4F0895AA1BBB1B51E11B
S113011007C0AA1FBB1FA617B70710F0A61BB70B73
S1130120881F991F5A95A9F780959095BC01CD0118
S10901300895F894FFCFCE
S9030000FC
