:100000000EC015C014C013C012C011C010C00FC064
:100010000EC00DC00CC00BC00AC009C008C011241E
:100020001FBECFE5D2E0DEBFCDBFAAD0BAC0E8CFB9
:1000300088B3826088BB2FEF89E698E12150804029
:100040009040E1F700C0000088B38D7F88BB2FEFA0
:1000500089E698E1215080409040E1F700C000001F
:1000600008958AB780648ABF80E090E00AB606FCF3
:1000700006C001962AE12A95F1F700C0F7CF2AB70A
:1000800020642ABF9C01220F331F220F331F820FCF
:10009000931F880F991F0895E4DFE3DF0895FCDFC5
:1000A000803B944014F480E0089581E008951F930C
:1000B000CF93DF93C0E0D0E010E0C830D10574F4F6
:1000C000EEDF90E027E030E02C1B3D0B02C0880FF4
:1000D000991F2A95E2F7182B2196EFCF812FDF91F8
:1000E000CF911F91089520E030E0283031054CF584
:1000F00067E070E0621B730B482F50E002C055951B
:1001000047956A95E2F740FF04C098B3906198BBA9
:1001100003C098B39F7E98BB98B3986098BBE7ECF8
:10012000F0E03197F1F700C0000098B3977E98BBDC
:10013000E7ECF0E03197F1F700C000002F5F3F4F90
:10014000D4CF88B38F7E88BB0895CF93A5DF8C343E
:100150009D411CF480E091E00DC083DF883B9B4013
:1001600024F47FDF80E092E005C0A1DFC82FBBDF71
:100170008C2F90E0CF91089585B7816085BF089559
:1001800087B3826087BBF8DF87B3886187BB88B39A
:10019000886088BB7894D9DF963109F449DF48DF5D
:0601A000FACFF894FFCF36
:00000001FF
