S01000004669726D776172652E73726563D7
S11300000EC015C014C013C012C011C010C00FC060
S11300100EC00DC00CC00BC00AC009C008C011241A
S11300201FBECFE5D2E0DEBFCDBFA3D02DC1E8CF48
S1130030FC0121E030E0C90102C0880F991F6A95D4
S1130040E2F7BC01808302C0220F331F4A95E2F716
S1130050218387B3262B282B27BB98B38181892B37
S113006088BB08958AB780648ABF80E090E00AB6AE
S113007006FC06C001962AE12A95F1F700C0F7CFE5
S11300802AB720642ABF9C01220F331F220F331F7B
S1130090820F931F880F991F0895CF93DF93EC016C
S11300A0E1DFCE01DFDFDF91CF910895F6DF803B02
S11300B0944014F480E0089581E00895EF92FF9253
S11300C01F93CF93DF937C01C0E0D0E010E0C830F1
S11300D0D10564F4C701EADF90E00C2E02C0880F5A
S11300E0991F0A94E2F7182B2196F1CF812FDF9103
S11300F0CF911F91FF90EF90089585B7816085BFE0
S11301000895EF92FF920F931F93CF93DF93EC0127
S1130110C4DF8C349D411CF480E090E023C0CE0108
S1130120A1DF883B9B402CF4CE019CDF80E090E073
S113013019C0CE01C3DF182FCE01C0DFF82ECE01C7
S1130140BDDF082FCE01BADFE82ECE018BDFF0949D
S11301501F1103C0E0940E1519F080E09FEF02C058
S1130160812F902FDF91CF911F910F91FF90EF90EE
S11301700895CF93DF93CDB7DEB727970FB6F894E2
S1130180DEBF0FBECDBFCE010196B7DF61E070E0E8
S1130190CE0102962AD043E050E064E070E0CE0144
S11301A0069646DFCE010196ACDF963191F0953488
S11301B019F09C30B9F713C0CE01029630D08FE10C
S11301C09EE40197F1F700C00000CE01029627D00B
S11301D0E9CF60E070E0CE01029649D0E3CF61E060
S11301E070E0CE01029643D0DDCFFC011182108273
S11301F0262F372F2630310518F46283738304C009
S113020081E090E09383828327B381E090E002C091
S1130210880F991F6A95E2F7822B87BB0895FC012A
S113022080819181892B69F028B381E090E002807C
S113023002C0880F991F0A94E2F78095822388BB35
S11302400BC028B381E090E0028002C0880F991FA0
S11302500A94E2F7822B88BB81E090E0208131810F
S1130260232B11F080E090E091838083089521E0B6
S1130270672B09F420E030E0FC0140815181241710
S10F0280350709F0CCDF0895F894FFCF97
S9030000FC
